{
  "contractName": "MessageRegistry",
  "abi": [
    {
      "constant": false,
      "inputs": [],
      "name": "renounceOwnership",
      "outputs": [],
      "payable": false,
      "stateMutability": "nonpayable",
      "type": "function"
    },
    {
      "constant": true,
      "inputs": [],
      "name": "owner",
      "outputs": [
        {
          "name": "",
          "type": "address"
        }
      ],
      "payable": false,
      "stateMutability": "view",
      "type": "function"
    },
    {
      "constant": true,
      "inputs": [],
      "name": "isOwner",
      "outputs": [
        {
          "name": "",
          "type": "bool"
        }
      ],
      "payable": false,
      "stateMutability": "view",
      "type": "function"
    },
    {
      "constant": true,
      "inputs": [
        {
          "name": "",
          "type": "uint256"
        }
      ],
      "name": "entries",
      "outputs": [
        {
          "name": "owner",
          "type": "address"
        },
        {
          "name": "authorName",
          "type": "string"
        },
        {
          "name": "message",
          "type": "string"
        }
      ],
      "payable": false,
      "stateMutability": "view",
      "type": "function"
    },
    {
      "constant": false,
      "inputs": [
        {
          "name": "newOwner",
          "type": "address"
        }
      ],
      "name": "transferOwnership",
      "outputs": [],
      "payable": false,
      "stateMutability": "nonpayable",
      "type": "function"
    },
    {
      "inputs": [],
      "payable": false,
      "stateMutability": "nonpayable",
      "type": "constructor"
    },
    {
      "anonymous": false,
      "inputs": [
        {
          "indexed": false,
          "name": "entryId",
          "type": "uint256"
        }
      ],
      "name": "NewEntry",
      "type": "event"
    },
    {
      "anonymous": false,
      "inputs": [
        {
          "indexed": false,
          "name": "entryId",
          "type": "uint256"
        }
      ],
      "name": "EntryModified",
      "type": "event"
    },
    {
      "anonymous": false,
      "inputs": [
        {
          "indexed": true,
          "name": "previousOwner",
          "type": "address"
        },
        {
          "indexed": true,
          "name": "newOwner",
          "type": "address"
        }
      ],
      "name": "OwnershipTransferred",
      "type": "event"
    },
    {
      "constant": false,
      "inputs": [
        {
          "name": "_authorName",
          "type": "string"
        },
        {
          "name": "_message",
          "type": "string"
        }
      ],
      "name": "writeMessage",
      "outputs": [
        {
          "name": "",
          "type": "uint256"
        }
      ],
      "payable": false,
      "stateMutability": "nonpayable",
      "type": "function"
    },
    {
      "constant": false,
      "inputs": [
        {
          "name": "_id",
          "type": "uint256"
        },
        {
          "name": "_newMessage",
          "type": "string"
        }
      ],
      "name": "changeMessage",
      "outputs": [],
      "payable": false,
      "stateMutability": "nonpayable",
      "type": "function"
    },
    {
      "constant": true,
      "inputs": [
        {
          "name": "_id",
          "type": "uint256"
        }
      ],
      "name": "readMessage",
      "outputs": [
        {
          "name": "",
          "type": "string"
        },
        {
          "name": "",
          "type": "string"
        }
      ],
      "payable": false,
      "stateMutability": "view",
      "type": "function"
    },
    {
      "constant": false,
      "inputs": [],
      "name": "worldDomination",
      "outputs": [],
      "payable": false,
      "stateMutability": "nonpayable",
      "type": "function"
    }
  ],
  "bytecode": "0x60806040523480156200001157600080fd5b50336000806101000a81548173ffffffffffffffffffffffffffffffffffffffff021916908373ffffffffffffffffffffffffffffffffffffffff1602179055506000809054906101000a900473ffffffffffffffffffffffffffffffffffffffff1673ffffffffffffffffffffffffffffffffffffffff16600073ffffffffffffffffffffffffffffffffffffffff167f8be0079c531659141344cd1fd0a4f28419497f9722a3daafe3b4186f6b6457e060405160405180910390a36200017a6040805190810160405280600b81526020017f4555524f4a41434b504f54000000000000000000000000000000000000000000815250606060405190810160405280602c81526020017f4e657874207765656b2077696e6e696e67206e756d626572733a2032362c203981526020017f382c2031312c20322c203733000000000000000000000000000000000000000081525062000181640100000000026401000000009004565b506200035e565b6000806001806060604051908101604052803373ffffffffffffffffffffffffffffffffffffffff168152602001878152602001868152509080600181540180825580915050906001820390600052602060002090600302016000909192909190915060008201518160000160006101000a81548173ffffffffffffffffffffffffffffffffffffffff021916908373ffffffffffffffffffffffffffffffffffffffff160217905550602082015181600101908051906020019062000249929190620002af565b50604082015181600201908051906020019062000268929190620002af565b5050500390507f9784cddb81f16b16cc2f8fe4003dfe483b96f22e0a1b028e6c120046df327df3816040518082815260200191505060405180910390a18091505092915050565b828054600181600116156101000203166002900490600052602060002090601f016020900481019282601f10620002f257805160ff191683800117855562000323565b8280016001018555821562000323579182015b828111156200032257825182559160200191906001019062000305565b5b50905062000332919062000336565b5090565b6200035b91905b80821115620003575760008160009055506001016200033d565b5090565b90565b6111dd806200036e6000396000f300608060405260043610610099576000357c0100000000000000000000000000000000000000000000000000000000900463ffffffff168063249e27671461009e578063715018a6146100b55780638da5cb5b146100cc5780638f32d59b14610123578063a1786d1b14610152578063a7d27056146101c5578063b30906d4146102d7578063f17811cb1461041c578063f2fde38b146104df575b600080fd5b3480156100aa57600080fd5b506100b3610522565b005b3480156100c157600080fd5b506100ca61063c565b005b3480156100d857600080fd5b506100e1610777565b604051808273ffffffffffffffffffffffffffffffffffffffff1673ffffffffffffffffffffffffffffffffffffffff16815260200191505060405180910390f35b34801561012f57600080fd5b506101386107a0565b604051808215151515815260200191505060405180910390f35b34801561015e57600080fd5b506101c360048036038101908080359060200190929190803590602001908201803590602001908080601f01602080910402602001604051908101604052809392919081815260200183838082843782019150505050505091929192905050506107f7565b005b3480156101d157600080fd5b506101f0600480360381019080803590602001909291905050506109ed565b604051808060200180602001838103835285818151815260200191508051906020019080838360005b83811015610234578082015181840152602081019050610219565b50505050905090810190601f1680156102615780820380516001836020036101000a031916815260200191505b50838103825284818151815260200191508051906020019080838360005b8381101561029a57808201518184015260208101905061027f565b50505050905090810190601f1680156102c75780820380516001836020036101000a031916815260200191505b5094505050505060405180910390f35b3480156102e357600080fd5b5061030260048036038101908080359060200190929190505050610bee565b604051808473ffffffffffffffffffffffffffffffffffffffff1673ffffffffffffffffffffffffffffffffffffffff1681526020018060200180602001838103835285818151815260200191508051906020019080838360005b8381101561037857808201518184015260208101905061035d565b50505050905090810190601f1680156103a55780820380516001836020036101000a031916815260200191505b50838103825284818151815260200191508051906020019080838360005b838110156103de5780820151818401526020810190506103c3565b50505050905090810190601f16801561040b5780820380516001836020036101000a031916815260200191505b509550505050505060405180910390f35b34801561042857600080fd5b506104c9600480360381019080803590602001908201803590602001908080601f0160208091040260200160405190810160405280939291908181526020018383808284378201915050505050509192919290803590602001908201803590602001908080601f0160208091040260200160405190810160405280939291908181526020018383808284378201915050505050509192919290505050610d77565b6040518082815260200191505060405180910390f35b3480156104eb57600080fd5b50610520600480360381019080803573ffffffffffffffffffffffffffffffffffffffff169060200190929190505050610ea1565b005b61052a6107a0565b151561059e576040517f08c379a00000000000000000000000000000000000000000000000000000000081526004018080602001828103825260148152602001807f53656e646572206973206e6f74206f776e65722100000000000000000000000081525060200191505060405180910390fd5b6106396040805190810160405280600481526020017f4164616d00000000000000000000000000000000000000000000000000000000815250606060405190810160405280602a81526020017f576f726c6420646f6d696e6174696f6e20696e2070726f67726573732e2e205381526020017f7461792074756e65642100000000000000000000000000000000000000000000815250610d77565b50565b6106446107a0565b15156106b8576040517f08c379a00000000000000000000000000000000000000000000000000000000081526004018080602001828103825260148152602001807f53656e646572206973206e6f74206f776e65722100000000000000000000000081525060200191505060405180910390fd5b600073ffffffffffffffffffffffffffffffffffffffff166000809054906101000a900473ffffffffffffffffffffffffffffffffffffffff1673ffffffffffffffffffffffffffffffffffffffff167f8be0079c531659141344cd1fd0a4f28419497f9722a3daafe3b4186f6b6457e060405160405180910390a360008060006101000a81548173ffffffffffffffffffffffffffffffffffffffff021916908373ffffffffffffffffffffffffffffffffffffffff160217905550565b60008060009054906101000a900473ffffffffffffffffffffffffffffffffffffffff16905090565b60008060009054906101000a900473ffffffffffffffffffffffffffffffffffffffff1673ffffffffffffffffffffffffffffffffffffffff163373ffffffffffffffffffffffffffffffffffffffff1614905090565b6001805490508211151515610874576040517f08c379a00000000000000000000000000000000000000000000000000000000081526004018080602001828103825260198152602001807f456e747279204944206973206f7574206f662072616e6765210000000000000081525060200191505060405180910390fd5b3373ffffffffffffffffffffffffffffffffffffffff1660018381548110151561089a57fe5b906000526020600020906003020160000160009054906101000a900473ffffffffffffffffffffffffffffffffffffffff1673ffffffffffffffffffffffffffffffffffffffff1614151561097d576040517f08c379a00000000000000000000000000000000000000000000000000000000081526004018080602001828103825260278152602001807f4974206973206e6f7420796f757220656e7472792c206e6f20746f756368792081526020017f746f75636879210000000000000000000000000000000000000000000000000081525060400191505060405180910390fd5b8060018381548110151561098d57fe5b906000526020600020906003020160020190805190602001906109b192919061108c565b507f33998d62e427eb034f33e80f138010c030580419d1a29512d5da3f61ff14a11c826040518082815260200191505060405180910390a15050565b6060806001805490508311151515610a6d576040517f08c379a00000000000000000000000000000000000000000000000000000000081526004018080602001828103825260198152602001807f456e747279204944206973206f7574206f662072616e6765210000000000000081525060200191505060405180910390fd5b600183815481101515610a7c57fe5b9060005260206000209060030201600101600184815481101515610a9c57fe5b9060005260206000209060030201600201818054600181600116156101000203166002900480601f016020809104026020016040519081016040528092919081815260200182805460018160011615610100020316600290048015610b425780601f10610b1757610100808354040283529160200191610b42565b820191906000526020600020905b815481529060010190602001808311610b2557829003601f168201915b50505050509150808054600181600116156101000203166002900480601f016020809104026020016040519081016040528092919081815260200182805460018160011615610100020316600290048015610bde5780601f10610bb357610100808354040283529160200191610bde565b820191906000526020600020905b815481529060010190602001808311610bc157829003601f168201915b5050505050905091509150915091565b600181815481101515610bfd57fe5b90600052602060002090600302016000915090508060000160009054906101000a900473ffffffffffffffffffffffffffffffffffffffff1690806001018054600181600116156101000203166002900480601f016020809104026020016040519081016040528092919081815260200182805460018160011615610100020316600290048015610ccf5780601f10610ca457610100808354040283529160200191610ccf565b820191906000526020600020905b815481529060010190602001808311610cb257829003601f168201915b505050505090806002018054600181600116156101000203166002900480601f016020809104026020016040519081016040528092919081815260200182805460018160011615610100020316600290048015610d6d5780601f10610d4257610100808354040283529160200191610d6d565b820191906000526020600020905b815481529060010190602001808311610d5057829003601f168201915b5050505050905083565b6000806001806060604051908101604052803373ffffffffffffffffffffffffffffffffffffffff168152602001878152602001868152509080600181540180825580915050906001820390600052602060002090600302016000909192909190915060008201518160000160006101000a81548173ffffffffffffffffffffffffffffffffffffffff021916908373ffffffffffffffffffffffffffffffffffffffff1602179055506020820151816001019080519060200190610e3d92919061110c565b506040820151816002019080519060200190610e5a92919061110c565b5050500390507f9784cddb81f16b16cc2f8fe4003dfe483b96f22e0a1b028e6c120046df327df3816040518082815260200191505060405180910390a18091505092915050565b610ea96107a0565b1515610f1d576040517f08c379a00000000000000000000000000000000000000000000000000000000081526004018080602001828103825260148152602001807f53656e646572206973206e6f74206f776e65722100000000000000000000000081525060200191505060405180910390fd5b610f2681610f29565b50565b600073ffffffffffffffffffffffffffffffffffffffff168173ffffffffffffffffffffffffffffffffffffffff1614151515610fce576040517f08c379a00000000000000000000000000000000000000000000000000000000081526004018080602001828103825260158152602001807f4f776e657220616c72656164792065786973747321000000000000000000000081525060200191505060405180910390fd5b8073ffffffffffffffffffffffffffffffffffffffff166000809054906101000a900473ffffffffffffffffffffffffffffffffffffffff1673ffffffffffffffffffffffffffffffffffffffff167f8be0079c531659141344cd1fd0a4f28419497f9722a3daafe3b4186f6b6457e060405160405180910390a3806000806101000a81548173ffffffffffffffffffffffffffffffffffffffff021916908373ffffffffffffffffffffffffffffffffffffffff16021790555050565b828054600181600116156101000203166002900490600052602060002090601f016020900481019282601f106110cd57805160ff19168380011785556110fb565b828001600101855582156110fb579182015b828111156110fa5782518255916020019190600101906110df565b5b509050611108919061118c565b5090565b828054600181600116156101000203166002900490600052602060002090601f016020900481019282601f1061114d57805160ff191683800117855561117b565b8280016001018555821561117b579182015b8281111561117a57825182559160200191906001019061115f565b5b509050611188919061118c565b5090565b6111ae91905b808211156111aa576000816000905550600101611192565b5090565b905600a165627a7a72305820d6a5a353cb68675b3224f2bc5e7bd66e4e52c44f12224ae43eeb757af9dc7d940029",
  "source": "pragma solidity ^0.4.24;\nimport \"./Ownable.sol\";\n\ncontract MessageRegistry is Ownable {\n\n    struct Entry {\n        address owner;\n        string authorName;\n        string message;\n    }\n\n    Entry[] public entries;\n\n    event NewEntry(uint entryId);\n    event EntryModified(uint entryId);\n\n    constructor() public {\n        writeMessage(\"EUROJACKPOT\", \"Next week winning numbers: 26, 98, 11, 2, 73\");\n    }\n\n    function writeMessage(string _authorName, string _message) public returns (uint) {\n        uint _id = entries.push(Entry(msg.sender, _authorName,_message))-1;\n        emit NewEntry(_id);\n        return _id;\n    }\n\n    function changeMessage(uint _id, string _newMessage) public {\n        require(_id <= entries.length, \"Entry ID is out of range!\");\n        require(entries[_id].owner == msg.sender,\"It is not your entry, no touchy touchy!\");\n\n        entries[_id].message = _newMessage;\n        emit EntryModified(_id);\n    }\n\n    function readMessage(uint _id) external view returns (string, string) {\n        require(_id <= entries.length, \"Entry ID is out of range!\");\n\n        return (entries[_id].authorName, entries[_id].message);\n    }\n\n    function worldDomination() public onlyOwner {\n        writeMessage(\"Adam\", \"World domination in progress.. Stay tuned!\");\n    }\n}\n",
  "sourcePath": "/home/aznagy/work/tech-thursdays/beginner2/contracts/MessageRegistry.sol",
  "compiler": {
    "name": "solc",
    "version": "0.4.24+commit.e67f0147.Emscripten.clang"
  },
  "schemaVersion": "2.0.1",
  "updatedAt": "2018-10-25T14:01:54.536Z"
}