{
  "contractName": "Test",
  "abi": [
    {
      "constant": true,
      "inputs": [],
      "name": "x",
      "outputs": [
        {
          "name": "",
          "type": "int256"
        }
      ],
      "payable": false,
      "stateMutability": "view",
      "type": "function"
    },
    {
      "anonymous": false,
      "inputs": [
        {
          "indexed": false,
          "name": "newX",
          "type": "int256"
        }
      ],
      "name": "NewX",
      "type": "event"
    },
    {
      "constant": false,
      "inputs": [
        {
          "name": "_x",
          "type": "int256"
        }
      ],
      "name": "setX",
      "outputs": [],
      "payable": false,
      "stateMutability": "nonpayable",
      "type": "function"
    }
  ],
  "bytecode": "0x608060405234801561001057600080fd5b50610115806100206000396000f3006080604052600436106049576000357c0100000000000000000000000000000000000000000000000000000000900463ffffffff1680630c55699c14604e578063a0fc4994146076575b600080fd5b348015605957600080fd5b50606060a0565b6040518082815260200191505060405180910390f35b348015608157600080fd5b50609e6004803603810190808035906020019092919050505060a6565b005b60005481565b806000819055507f138c4d8070c7e814b770feb7bf11e58966c81d61b2e55be229dbe1d44576b8ca6000546040518082815260200191505060405180910390a1505600a165627a7a723058209715c598f935d690692d6b493dc69549eff74b199963b4148ed6ee3118db1d2a0029",
  "source": "pragma solidity ^0.4.24;\n\ncontract Test {\n    \n    int public x;\n\n    event NewX(int newX);\n\n    function setX(int _x) public { \n        x = _x;\n        emit NewX(x);\n    }\n}\n",
  "sourcePath": "/home/aznagy/work/tech-thursdays/beginner2/contracts/Test.sol",
  "compiler": {
    "name": "solc",
    "version": "0.4.24+commit.e67f0147.Emscripten.clang"
  },
  "schemaVersion": "2.0.1",
  "updatedAt": "2018-10-25T14:08:24.563Z"
}